:020000040000FA
:10000000780C0020650100007F01000081010000E4
:1000100000000000000000000000000000000000E0
:10002000000000000000000000000000830100004C
:1000300000000000000000008501000087010000B2
:100040008901000089010000890100008901000088
:100050008901000000000000890100008901000002
:100060008901000089010000D1020000890100001F
:100070008901000089010000890100008901000058
:100080008901000089010000890100008901000048
:100090008901000089010000890100008901000038
:1000A000890100008901000000000000000000003C
:1000B0000000000000000000000000000000000040
:1000C00000F002F800F03EF80CA030C80838241800
:1000D0002D18A246671EAB4654465D46AC4201D180
:1000E00000F030F87E460F3E0FCCB6460126334274
:1000F00000D0FB1AA246AB4633431847AC040000BD
:10010000CC040000103A02D378C878C1FAD852075C
:1001100001D330C830C101D504680C6070470000BD
:100120000023002400250026103A01D378C1FBD813
:10013000520700D330C100D50B6070471FB51FBDFB
:1001400010B510BD00F03BF81146FFF7F7FF00F0C7
:1001500091F900F053F803B4FFF7F2FF03BC00F08D
:1001600057F8000003210C4802680A4302600B485C
:1001700002680A4302600A4880470A480047FEE7CF
:10018000FEE7FEE7FEE7FEE7FEE700000648074958
:10019000074A084B70470000240500405405004002
:1001A00099020000C100000078000020780C0020B7
:1001B0007804002078040020704770477047754627
:1001C00000F022F8AE46050069465346C008C0005C
:1001D000854618B020B5FFF7D9FF60BC0027490855
:1001E000B6460026C0C5C0C5C0C5C0C5C0C5C0C5CF
:1001F000C0C5C0C5403D49008D4670470446C04655
:10020000C0462046FFF7A7FF0048704718000020AF
:1002100001491820ABBEFEE726000200704700002F
:1002200010B5002819DA1A4A03071B0F083B9B0870
:100230009B00D2588307DC0EFF23A3409A438B0711
:100240001B0E8407E40EA3401A43114B0407240F2E
:10025000083CA408A4001A5118E00E4A03231B020C
:10026000D21883089B00D2588307DC0EFF23A340DB
:100270009A438B071B0E8407E40EA3401A43054BD9
:10028000032424021B198408A4001A5110BD000085
:100290001CED00E000E100E010B500F0B5F800282A
:1002A00005D0074807494860C8130749886100F02E
:1002B0008FF8002802D001200449886010BD00009A
:1002C000DFFF07C000050040006C00400006004052
:1002D00004480068401C0349086000200249086087
:1002E000704700001400002040A100400249087837
:1002F0000021014A117070470400002070B51121DF
:10030000032293000524240707252D0264198D007C
:10031000635100BF13461C0495002C4305252D078F
:1003200007263602AD198E00AC5100BF0149087096
:1003300070BD00000400002010B500F005F9204950
:10034000096888423BD000F0FFF81D4908601D484D
:10035000007800280ED1112000F0E4F8C007C00F8B
:10036000002807D101201749087000F0EDF8164960
:10037000086024E013480078012820D1112000F003
:10038000D1F8C007C00F002802D000200D49087026
:1003900000F0DAF80C490968401A7D21C90088424A
:1003A00003D902200949087009E0112000F0BAF8C9
:1003B000C007C00F002802D001200449087010BDFA
:1003C00008000020100000200C0000200400002085
:1003D0000C48008CC0B2012812D10A48808C00075A
:1003E000000F00280CD10748806AF02108404028FF
:1003F00006D10448C06A0840002801D10120704796
:100400000020FCE7C00F00F01948008CC0B20128A2
:100410002CD11748808C0007000F002826D11448E3
:10042000806AF0210840002806D11148C06A0840BF
:10043000002801D1012070470D48806AF021084052
:10044000102806D10A48C06A0840002801D10120BE
:10045000F1E70748806AF0210840302806D10448B7
:10046000C06A0840002801D10120E4E70020E2E74B
:10047000C00F00F000201B490860012081070860C0
:1004800000BF184800680028FBD0082000F038F8AA
:10049000082000F03FF800F05DF80020FFF72EFF85
:1004A0001D2000F02DF81D2000F034F8642000F02D
:1004B0001BF816E0FFF71AFF0446012C06D10820AE
:1004C00000F028F81D2000F025F807E0022C05D1E7
:1004D000082000F031F81D2000F02EF8FFF72CFF67
:1004E00000BFE7E70001004000B5014600F02CF82E
:1004F000024600BF00F028F853189842FAD300BD16
:1005000003210522120707231B02D2188300D150B2
:100510007047000001218140014AD160704700000E
:1005200000050050014603480069C840C007C00FDD
:10053000704700000005005001218140014A916090
:100540007047000000050050014800687047000037
:100550001400002010B501200E49C86004200E4987
:1005600008617D20C0000C494031086001200B4922
:10057000086000040A49486002210A20FFF750FE83
:100580000A2001218140074A116000BF0120014972
:10059000086010BD00A0004000A5004000A200407F
:1005A00000A3004000E100E0C805000000000020BA
:1005B0001800000004010000E00500001800002001
:1005C000600C0000200100000024F4000000000086
:1005D000000000000000000000000000000000001B
:04000005000000C136
:00000001FF
